:0600000002006B02200C5F
:03000B0002200DC3
:0300130002200EBA
:03001B0002200FB1
:03002300022010A8
:03002B000220119F
:0300330002201296
:03003B000220138D
:0300430002201484
:03004B000220157B
:0300530002201672
:03005B0002201769
:0300630002201860
:030118000200667C
:030066000201266E
:20011B00000000000000000000002275B2FFD280D280D28190E68AE4F090E680E043E008B0
:20013B00F0750B007401250B4017750C007401250C4007E50C04F50C80F3E50B04F50B80ED
:20015B00E390E6687408F090E65C7401F0D2E890E6807402F0D2AF90E600E020E30890E6B2
:0D017B0000E043E008F090E6B5E4F080FEFF
:2000C4007521007522E175271975282075291A752A20752B1B752C20752D1E752E20752F82
:2000E4001B75302075311F75322075332075342075357E75362175377F753821753980756F
:140104003A21753B81753C21753D82753E21753F8375402174
:20200000022184000222590002225A00323232323232323232323232322222D20022222218
:20202000852182852283E0FFBF80028003D20022852182852283A3A3A3E0FFBF0102800D4E
:20204000BF02028008BF03028003D20022BF01028002807A852182852283A3A3E0FE8521A0
:2020600082852283A3A3A3A3E04206852182852283A3A3A3A3A3E0FD4E6003D2002290E687
:20208000B57401F07E00901000E493FDC3EE9D501674402EFCE434E7FDEE90100093FB8C5E
:2020A000828D83F00E80DF12011B90E68AE4F012011B852582852683A3A3A3A3A3A3E09065
:2020C000E68BF012011B90E6B5E4F0D20122BF024190E6B57401F0852182852283A3A3E073
:2020E000FE852182852283A3A3A3A3A3E04206852182852283A3A3A3A3E04E6003D20022D6
:2021000090E6B47412F07D127E1090E6B3EEF0D20122BF036874052521FEE43522FF8E82D5
:202120008F83E0702274042521FEE43522FF8E828F83E0701290E6B47432F07E327F109012
:20214000E6B3EFF0D20122852182852283A3A3E0FFBF011290E6B47436F07D367E1090E64E
:20216000B3EEF0D20122BF021290E6B47442F07E427F1090E6B3EFF0D20122D200222222B2
:20218000222222225391EF90E65D7401F07525B87526E67E007F00C3EE9408EF64809480A8
:2021A0005020EE2521FCEF3522FD74B82EF58274E63FF583E0FB8C828D83F00EBE00D80FBE
:2021C00080D5C200852182852283E0FF5460600302224E852182852283A3E0FFBF0D00503E
:2021E0006DEF2F2427F98706098707C007C0068E828F83120069D006D00730000790E6A0C8
:202200007481F03290E6A0E043E080F0852182852283E0FF20E70132100102800332803734
:2022200012011B852182852283A3A3A3A3A3A3A3E090E68AF012011B852182852283A3A313
:20224000A3A3A3A3E090E68BF012011B8009D20090E6A07481F03232222222222222222229
:20226000222222222222222222222222222222222222222222222222AF82758902758E00FA
:20228000758C30758A00C280D28C108D0280FB7E00BE0800501B8EF005F0EF8002C313D516
:2022A000F0FB5401FD24FF9280108D0280FB0E80E0D280108D0280FB108D0280FBC28C75DB
:0622C0008C00758A00226B
:2010000012010101FFFFFF40123173190100010200010902200001010080300904000002BE
:20102000FFFFFF000705010240000007058102400000040309040C034D0041005800490043
:1E1040004D001C034D004100580049004D002000460049004C00410054004F00560075
:06009A00E478FFF6D8FD3A
:200078007900E94400601B7A0090018C7801759200E493F2A308B800020592D9F4DAF275BD
:0200980092FFD5
:2000A0007800E84400600A7901759200E4F309D8FC7800E84400600C7900900001E4F0A36C
:0400C000D8FCD9FA95
:0F006900E473758140120188E58260030200662E
:04018800758200225A
:00000001FF
