:0300000002068B6A
:03004300020100B7
:1000530002010090E67C058690E67BE00586F005CC
:1000630086D530F705862290E67BE0F608D530FA90
:100073002223F58393C5830493F58205862200002A
:0300830000002258
:1001000002051300020600000206010002060200BA
:10011000020603000206040002064E000201B700B8
:1001200002064F0002065000020660000206580058
:10013000020667000206710002067B0002068500C7
:10014000020651000201B7000206520002065900E1
:10015000020668000206720002067C0002068600A3
:10016000020653000201B7000201B7000201B70006
:10017000020669000206730002067D00020687007F
:1001800002066A000206740002067E00020688006B
:1001900002066B000206750002067F000206890057
:1001A00002066C00020676000206800002068A0043
:1001B0000201D3000201D43290E6687408F090E6A0
:1001C0005C7421F043E80190E6B57401F075AF0767
:1001D0002222323232022C026C02CA02F0022C02BB
:1001E0003202AE02F00012010101FFFFFF401231A6
:1001F00073190100010203010A060101FFFFFF401C
:100200000100090220000101008028090400000209
:10021000FFFFFF00070501024000000705810240C3
:1002200000000907090000010080280006030904F6
:1002300019043A034A004F00550052004E00410095
:100240004C00200022004D004F00440045005200A9
:100250004E00200045004C00450043005400520071
:100260004F004E0049004300530022004203160491
:10027000430440043D0430043B04200022002104D8
:100280003E043204400435043C0435043D043D047E
:1002900030044F0420004D043B0435043A0442046A
:1002A00040043E043D0438043A04300422001C0398
:1002B0004D00590020005500530042002D0044001D
:1002C0004500560049004300450026031C043E0437
:1002D000510420005500530042002D004304410406
:1002E000420440043E0439044104420432043E0402
:1002F0001C03530045005200490041004C002000FF
:100300004E0055004D00420045005200A0A00000E4
:10031000000022C2D5B4010D90E610686001A3E090
:1003200030E72C802CB4020590E6128016B4040548
:1003300090E613800EB4060590E6148006B4080F0C
:1003400090E615E030E70854404854C030D002D25F
:10035000D5E82230E006C2E023700522C2E703A3FD
:10036000A3D5E0FC22A2E7540F92E490E683F0D2FA
:10037000E5F0540F222275860190030CE50A120065
:100380007485839A85829B759DE6759E10753006EF
:10039000120056227586019004EB80067586019046
:1003A00004FFA2E7540E2392E1F58393C5830493DF
:1003B000F584858385E50A23F58393C5830493F546
:1003C00082E40586732222D200222222E502B48032
:1003D00051E505B401059001E68016B406059001CB
:1003E000F8800EB407059002228006B4020D900238
:1003F00002E5044506450770298032B403240586CA
:10040000E5077009E506701A9001DD8010B404124A
:10041000E506B4090280F1B419089001D5E504B4E9
:100420000406758600D2002250F8120074D2012210
:10043000D2002222E5084509450645074505450243
:100440007014E5047006C204D205802EB40107D2F0
:10045000047504008022D2002222300416E502B482
:100460000111E50845094506450745057005E50400
:10047000B40103D2002250FBC2057401F8C2E71296
:10048000031330D51EB4860E30050122D205850433
:100490000A12037680E4B2E720E7E12330E4DD745A
:1004A0000680D9C0E020050512039C803720041384
:1004B00012039CD0E0F890E610120353E0C2E7F07C
:1004C000E880C290E610120353E030E504E812031E
:1004D00065E8120375E8120394E890E6A11203534D
:1004E000E0C2E0F0D0E0809DD200220654065C0617
:1004F000630663066D066D0677067706810681063C
:1005000056065E06650665066F066F06790679066D
:10051000830683C0E0C0F0C083C082C085C084C0B1
:1005200086C09AC09BC09DC09EC030E8C0E0E9C0B4
:10053000E0C0D07586005391EF90E65D7401F075D0
:100540009AE6759BB8780275300812006AC200E519
:100550000254607005E503B40D0890E6A07481F0C4
:10056000807D50F690056C75F005A4731203C5806C
:100570003A1203C680351203C780301203CA802B9B
:100580001203C780261203CB80211203CC801C12D9
:10059000043080171204338012120434800D1204C8
:1005A00059800812045A80031204E875860120005D
:1005B000A990E6A0E0F0E50230E724200115120042
:1005C0008190E68AE509F0120081A3E508F01200A7
:1005D00081800C90E6B3E583F0A3E582F0C201D000
:1005E000D0D0E0F9D0E0F8D030D09ED09DD09BD0D4
:1005F0009AD086D084D085D082D083D0F0D0E0321B
:1006000032323232C0E0C083C082C085C084C0862E
:100610007586005391EF90E65D7420F090E65CE003
:10062000C2E5F0740090021FF0900218F07402907E
:100630000220F0900219F09001E87400F0A3740217
:10064000F0D086D084D085D082D083D0E0323232D0
:1006500032323232065A065B32322222066106629A
:1006600032222203120312323232323232031203A6
:100670001232323232323203120312323232323218
:100680003203120312323232323232758131783112
:100690007600D8FC758E0190E680E020E31B90E6A2
:1006A000807408F0E490E600F01201D17A0478003A
:1006B000790000D9FDD8F9DAF71201B890E6007494
:0E06C00010F090E6807402F0D2AF000080FCD3
:00000001FF
