:1000C4007521007522E17527A77528017529A87582
:1000D4002A01752BA9752C01752DAC752E01752F70
:1000E400A97530017531AD7532017533AE753401C2
:1000F40075351C75360375371F75380375392075CA
:100104003A03753B99753C03753D9A753E03753FFB
:040114009B75400394
:10018D0002039C000204710002047200323232320A
:10019D00323232323232323232222222D200222214
:1001AD0022852182852283E0FFBF80028005D20057
:1001BD0002031B852182852283A3A3A3E0FFBF0138
:1001CD0002800FBF0202800ABF03028005D2000227
:1001DD00031BBF01028003020265852182852283F4
:1001ED00A3A3E0FE852182852283A3A3A3A3E042DE
:1001FD0006852182852283A3A3A3A3A3E0FD4E60E0
:10020D0005D20002031B90E6B57401F07E00900448
:10021D00DEE493FDC3EE9D501674402EFCE434E7EE
:10022D00FDEE9004DE93FB8C828D83F00E80DF1249
:10023D00011B90E68AE4F012011B85258285268339
:10024D00A3A3A3A3A3A3E090E68BF012011B90E65A
:10025D00B5E4F0D20102031BBF024590E6B574016F
:10026D00F0852182852283A3A3E0FE85218285224C
:10027D0083A3A3A3A3A3E04206852182852283A3A2
:10028D00A3A3A3E0FD4E6005D20002031B90E6B4CC
:10029D0074F0F07DF07E0490E6B3EEF0D201806E46
:1002AD00BF036B74052521FEE43522FF8E828F83FB
:1002BD00E0702374042521FEE43522FF8E828F83A6
:1002CD00E0701390E6B47410F07E107F0590E6B3E5
:1002DD00EFF0D2018038852182852283A3A3E0FF30
:1002ED00BF011390E6B47414F07D147E0590E6B34F
:1002FD00EEF0D2018018BF021390E6B47420F07EA8
:10030D00207F0590E6B3EFF0D2018002D20022D219
:10031D00002222852582852683E0FF85258285267C
:10032D0083A3A3A3A3A3A3E04207852582852683E8
:10033D00A3A3A3A3A3A3A3E04207852582852683B8
:10034D00A3A3A3A3E04207852582852683A3A3A3A8
:10035D00A3A3E04207852582852683A3A3A3E0FE00
:10036D004F6004D200802474022525FEE43526FF5B
:10037D008E828F83E0FD6013BD01028004D2008068
:10038D000AD2028E828F83E4F0C2032222222253EC
:10039D0091EF90E65D7401F07525B87526E67E0047
:1003AD007F00C3EE9408EF648094805020EE2521E9
:1003BD00FCEF3522FD74B82EF58274E63FF583E02F
:1003CD00FB8C828D83F00EBE00D80F80D5C20085C8
:1003DD002182852283E0FF5460600302046685213B
:1003ED0082852283A3E0FFBF0D00506DEF2F2427E0
:1003FD00F98706098707C007C0068E828F83120012
:10040D0069D006D00730000790E6A07481F03290D5
:10041D00E6A0E043E080F0852182852283E0FF2085
:10042D00E70132100102800332803712011B852152
:10043D0082852283A3A3A3A3A3A3A3E090E68AF0BE
:10044D0012011B852182852283A3A3A3A3A3A3E06D
:10045D0090E68BF012011B8009D20090E6A074810A
:10046D00F032322222222222222222222222222271
:10047D00222222222222222222222222222222224F
:10048D00222222AF82758902758E00758C30758A95
:10049D0000C280D28C108D0280FB7E00BE08005001
:1004AD001B8EF005F0EF8002C313D5F0FB5401FD58
:1004BD0024FF9280108D0280FB0E80E0D280108D83
:1004CD000280FB108D0280FBC28C758C00758A003A
:0104DD0022FC
:0600000002006B020199F1
:03000B0002019A55
:0300130002019B4C
:03001B0002019C43
:0300230002019D3A
:03002B0002019E31
:0300330002019F28
:03003B000201A01F
:030043000201A116
:03004B000201A20D
:030053000201A304
:03005B000201A4FB
:030063000201A5F2
:030118000200667C
:030066000201266E
:10011B00000000000000000000002275B2FFD2803A
:10012B00D280D28190E68AE4F090E680E043E0084A
:10013B00F0750B007401250B4017750C007401252D
:10014B000C4007E50C04F50C80F3E50B04F50B8074
:10015B00E390E6687408F090E65C7401F0D2E890E6
:10016B00E6807402F0D2AF90E600E020E30890E660
:0E017B0000E043E008F090E6B5E4F080FE22DC
:1004DE0012010101FFFFFF401231731901000102E9
:1004EE000001090220000101008030090400000211
:1004FE00FFFFFF00070501024000000705810240D3
:10050E000000040309040C034D004100580049008B
:10051E004D001C034D004100580049004D002000C5
:0E052E00460049004C00410054004F005600AA
:06009A00E478FFF6D8FD3A
:100078007900E94400601B7A009004DE78017592EB
:1000880000E493F2A308B800020592D9F4DAF275F5
:0200980092FFD5
:1000A0007800E84400600A7901759200E4F309D809
:1000B000FC7800E84400600C7900900001E4F0A3B3
:0400C000D8FCD9FA95
:0F006900E473758140120189E58260030200662D
:040189007582002259
:00000001FF
